:100000000C945D000C9485000C9485000C94850084
:100010000C9485000C9485000C9485000C9485004C
:100020000C9485000C9485000C9485000C9485003C
:100030000C9485000C9485000C9485000C9485002C
:100040000C9473020C9485000C94E3020C94BD0292
:100050000C9485000C9485000C9485000C9485000C
:100060000C9485000C94850000000008000201003B
:100070000003040700000000000000000000000072
:10008000250028002B0000000000240027002A0083
:10009000040404040404040402020202020203032E
:1000A0000303030301020408102040800102040836
:1000B0001020010204081020C20411241FBECFEF3B
:1000C000D8E0DEBFCDBF13E0A0E0B1E0EEEEF9E096
:1000D00002C005900D92A635B107D9F723E0A6E539
:1000E000B3E001C01D92AC3FB207E1F710E0CDE5EF
:1000F000D0E004C02197FE010E94EF04CC35D10767
:10010000C9F70E9415030C94F5040C94000090E0CC
:10011000FC01EC55FF4F249180579F4FFC018491C7
:10012000882399F090E0880F991FFC01EA57FF4F50
:10013000A591B491FC01E458FF4F859194918FB73C
:10014000F894EC91E22BEC938FBF089590E0FC01C2
:10015000E859FF4F2491FC01EC55FF4F3491FC010D
:10016000E057FF4FE491EE23C9F0222339F023300A
:1001700001F1A8F4213019F1223029F1F0E0EE0F5D
:10018000FF1FE458FF4FA591B4918FB7F894EC91FD
:10019000611126C030953E233C938FBF08952730D0
:1001A000A9F02830C9F0243049F7809180008F7D74
:1001B00003C0809180008F7780938000DFCF84B56B
:1001C0008F7784BDDBCF84B58F7DFBCF8091B0006E
:1001D0008F778093B000D2CF8091B0008F7DF9CF20
:1001E0003E2BDACF3FB7F89480915B0390915C038C
:1001F000A0915D03B0915E0326B5A89B05C02F3F7B
:1002000019F00196A11DB11D3FBFBA2FA92F982F3C
:100210008827BC01CD01620F711D811D911D42E037
:10022000660F771F881F991F4A95D1F708958F92FF
:100230009F92AF92BF92CF92DF92EF92FF924B01CB
:100240005C010E94F2006B017C010E94F2006C19BB
:100250007D098E099F09683E734081059105A8F3C9
:1002600021E0821A9108A108B10888EEC80E83E047
:10027000D81EE11CF11C81149104A104B10429F7DA
:10028000FF90EF90DF90CF90BF90AF909F908F90B6
:100290000895AF92BF92CF92DF92EF92FF920F93A9
:1002A0001F93CF93DF936C017B018B01040F151F0C
:1002B000EB015E01AE18BF08C017D10759F0699174
:1002C000D601ED91FC910190F081E02DC6010995D8
:1002D000892B79F7C501DF91CF911F910F91FF9085
:1002E000EF90DF90CF90BF90AF900895FC01538DB9
:1002F000448D252F30E0842F90E0821B930B541700
:1003000010F0CF96089501970895FC01918D828D8C
:10031000981761F0A28DAE0FBF2FB11D5D968C9125
:10032000928D9F5F9F73928F90E008958FEF9FEF64
:100330000895FC01918D828D981731F0828DE80F20
:10034000F11D858D90E008958FEF9FEF0895FC01DA
:10035000918D228D892F90E0805C9F4F821B9109A7
:100360008F73992708958FE593E00E94A70121E0FC
:10037000892B09F420E0822F089580E090E0892BFA
:1003800029F00E94B30181110C9400000895FC0132
:10039000A48DA80FB92FB11DA35ABF4F2C91848DE6
:1003A00090E001968F739927848FA689B7892C9343
:1003B000A089B1898C91837080648C93938D848D96
:1003C000981306C00288F389E02D80818F7D808399
:1003D0000895EF92FF920F931F93CF93DF93EC0159
:1003E00081E0888F9B8D8C8D98131AC0E889F989DC
:1003F000808185FF15C09FB7F894EE89FF896083DF
:10040000E889F98980818370806480839FBF81E05F
:1004100090E0DF91CF911F910F91FF90EF900895A1
:10042000F62E0B8D10E00F5F1F4F0F731127E02E7C
:100430008C8D8E110CC00FB607FCFACFE889F989B4
:10044000808185FFF5CFCE010E94C701F1CFEB8DF2
:10045000EC0FFD2FF11DE35AFF4FF0829FB7F89488
:100460000B8FEA89FB8980818062CFCFCF93DF93A6
:10047000EC01888D8823B9F0AA89BB89E889F989BC
:100480008C9185FD03C0808186FD0DC00FB607FCF1
:10049000F7CF8C9185FFF2CF808185FFEDCFCE0124
:1004A0000E94C701E9CFDF91CF910895CF93DF93E9
:1004B000FC0101900020E9F73197AF01481B590B6F
:1004C000BC018FE593E00E944901EC0142E050E05D
:1004D00062E171E08FE593E00E9449018C0F9D1F5E
:1004E000DF91CF9108951F920F920FB60F921124B2
:1004F0002F933F938F939F93AF93BF938091570315
:1005000090915803A0915903B0915A03309156032A
:1005100023E0230F2D3758F50196A11DB11D20931F
:1005200056038093570390935803A0935903B093B5
:100530005A0380915B0390915C03A0915D03B0919D
:100540005E030196A11DB11D80935B0390935C0334
:10055000A0935D03B0935E03BF91AF919F918F9184
:100560003F912F910F900FBE0F901F90189526E886
:10057000230F0296A11DB11DD2CF1F920F920FB66D
:100580000F9211242F933F934F935F936F937F9319
:100590008F939F93AF93BF93EF93FF938FE593E078
:1005A0000E94C701FF91EF91BF91AF919F918F91F1
:1005B0007F916F915F914F913F912F910F900FBE5F
:1005C0000F901F9018951F920F920FB60F92112443
:1005D0002F938F939F93EF93FF93E0916F03F0918D
:1005E00070038081E0917503F091760382FD1BC05A
:1005F0009081809178038F5F8F73209179038217A8
:1006000041F0E0917803F0E0E15AFC4F958F809340
:100610007803FF91EF919F918F912F910F900FBED3
:100620000F901F9018958081F4CF789484B58260E4
:1006300084BD84B5816084BD85B5826085BD85B586
:10064000816085BD80916E00816080936E00109204
:10065000810080918100826080938100809181007F
:100660008160809381008091800081608093800010
:100670008091B10084608093B1008091B00081606E
:100680008093B00080917A00846080937A0080919A
:100690007A00826080937A0080917A0081608093F2
:1006A0007A0080917A00806880937A001092C1006D
:1006B000E0916F03F091700382E08083E0916B031F
:1006C000F0916C031082E0916D03F0916E038FEC5A
:1006D000808310927703E0917303F091740386E0B6
:1006E0008083E0917103F091720380818061808347
:1006F000E0917103F0917203808188608083E091C2
:100700007103F0917203808180688083E0917103AE
:10071000F091720380818F7D80838DE00E9487003D
:100720008CE00E9487008BE00E94870088E00E9496
:1007300087008AE00E94870089E00E94870087E0A6
:100740000E94870085E191E00E94560268EC70E00B
:1007500080E090E00E94170180E291E00E94560242
:1007600068EC70E080E090E00E94170189E391E07E
:100770000E94560268EC70E080E090E00E94170151
:1007800083E491E00E945602C0E0D0E08FE593E060
:100790000E94A701892B09F44FC08FE593E00E94C6
:1007A0008501E0EDE80FE73308F046C00E2E000C9F
:1007B000FF0BE352FC4F0C94EF0451044A0458041D
:1007C0006D0482049704AC04B7041C041C041C04CC
:1007D0001C041C041C041C041C041C041404270416
:1007E0002E0435043C0443041C041C041C041C0497
:1007F0001C041C041C041C041C041C041C041C04F9
:100800001C041C041C041C041C041C041C041C04E8
:100810001C041C041C041C041C041C0414042704D5
:100820002E0435043C04430461E08DE00E94A600E0
:1008300082E591E00E945602209709F4A7CF0E941A
:10084000B301882309F4A2CF0E9400009FCF60E08B
:100850008DE00E94A6008AE791E0ECCF61E08CE099
:100860000E94A60080EA91E0E5CF60E08CE00E9463
:10087000A60088EC91E0DECF61E08BE00E94A6004C
:100880008EEE91E0D7CF60E08BE00E94A6008EE074
:1008900092E0D0CF61E088E00E94A6008CE292E076
:1008A000C9CF60E088E00E94A6008DE392E0C2CF4D
:1008B0008CE492E00E94560261E08AE00E94A60069
:1008C00060ED77E080E090E00E94170160E08AE050
:1008D0000E94A60083E692E0ADCF86E792E00E94F8
:1008E000560261E08AE00E94A60060ED77E080E0B9
:1008F00090E00E94170160E08AE00E94A6008AE86A
:1009000092E098CF8AE992E00E94560261E089E085
:100910000E94A60060ED77E080E090E00E94170161
:1009200060E089E00E94A60080EB92E083CF82EC39
:1009300092E00E94560261E089E00E94A60060ED0C
:1009400077E080E090E00E94170160E089E00E947B
:10095000A60085ED92E06ECF84EE92E00E945602F2
:1009600061E087E00E94A60084E093E063CF8FE11E
:1009700093E00E94560260E087E00E94A6008CE3AC
:1009800093E058CFEFE5F3E01382128288EE93E014
:10099000A0E0B0E084839583A683B78384E091E0F0
:1009A0009183808385EC90E09587848784EC90E048
:1009B0009787868780EC90E0918B808B81EC90E02C
:1009C000938B828B82EC90E0958B848B86EC90E00D
:1009D000978B868B118E128E138E148E0895EE0FC8
:0E09E000FF1F0590F491E02D0994F894FFCFCD
:1009EE0000000000E901490176013602A7018501E8
:1009FE0099010D0A004269656E76656E69646F0035
:100A0E00496E696369616C697A616E646F20656CA9
:100A1E002073697374656D61004573706572652E20
:100A2E002E2E0053697374656D612061637469764F
:100A3E006F00496C756D696E6163696F6E206465D8
:100A4E00206C6120706C616E74612062616A61203D
:100A5E00656E63656E6469646100496C756D696E7F
:100A6E006163696F6E206465206C6120706C616ECD
:100A7E0074612062616A6120617061676164610006
:100A8E00496C756D696E6163696F6E206465206C6B
:100A9E006120706C616E746120616C746120656E92
:100AAE0063656E6469646100496C756D696E61633E
:100ABE00696F6E206465206C6120706C616E74616C
:100ACE0020616C7461206170616761646100496CC2
:100ADE00756D696E6163696F6E2064656C207061FF
:100AEE0074696F20656E63656E6469646100496C3C
:100AFE00756D696E6163696F6E2064656C207061DF
:100B0E0074696F206170616761646100416C61722C
:100B1E006D6120656E63656E6469646100416C6130
:100B2E00726D612061706167616461004170657210
:100B3E00747572616E646F20636F63686572612E87
:100B4E002E2E00436F63686572612061706572744A
:100B5E0075726164610043657272616E646F2063C9
:100B6E006F63686572612E2E2E00436F6368657227
:100B7E0061206365727261646100417065727475A3
:100B8E0072616E646F20706F72746F6E2E2E2E00F7
:100B9E00506F72746F6E20617065727475726164DD
:100BAE006F0043657272616E646F20706F72746F46
:100BBE006E2E2E2E00506F72746F6E2063657272E1
:100BCE0061646F00456E63656E6469656E646F2067
:100BDE0073697374656D6120646520726965676FF2
:100BEE002E2E2E0053697374656D6120646520721C
:100BFE006965676F20656E63656E6469646F004139
:100C0E00706167616E646F2073697374656D6120C6
:100C1E00646520526965676F2E2E2E0053697374BA
:100C2E00656D6120646520726965676F2061706112
:060C3E006761646F000015
:00000001FF
