:100000000C94DF000C9407010C9407010C94070179
:100010000C9407010C9407010C9407010C94070140
:100020000C9407010C9407010C9407010C94070130
:100030000C9407010C9407010C9407010C94070120
:100040000C9472060C9407010C94E2060C94BC0606
:100050000C9407010C9407010C9407010C94070100
:100060000C9407010C94070100407A10F35A00A089
:10007000724E18090010A5D4E80000E87648170071
:1000800000E40B54020000CA9A3B000000E1F505B1
:10009000000080969800000040420F000000A086FB
:1000A00001000000102700000000E803000000002D
:1000B0006400000000000A000000000001000000D1
:1000C00000002C76D888DC674F0823DFC1DFAE59EB
:1000D000E1B1B796E5E3E453C63AE651997696E87E
:1000E000E6C28426EB898C9B62ED407C6FFCEFBC02
:1000F0009C9F40F2BAA56FA5F490055A2AF75C932D
:100100006B6CF9676DC11BFCE0E40D47FEF520E662
:10011000B500D0ED902E0300943577050080841E45
:10012000080000204E0A000000C80C333333330FA0
:10013000986E12831141EF8D2114893BE65516CF3D
:10014000FEE6DB18D1844B381BF77C1D901DA4BB49
:10015000E424203284725E228100C9F124ECA1E5FE
:100160003D2700000000240027002A0000000000B6
:10017000250028002B0000000008000201000003F9
:100180000407000000000000000000000000230041
:1001900026002900040404040404040402020202E8
:1001A000020203030303030301020408102040803A
:1001B0000102040810200102040810201407112471
:1001C0001FBECFEFD8E0DEBFCDBF22E0A0E5B1E09B
:1001D00001C01D92A532B207E1F711E0A0E0B1E045
:1001E000EEEAFFE102C005900D92A035B107D9F704
:1001F00010E0CFEDD0E004C02197FE010E94DD0D9C
:10020000CE3DD107C9F70E947E070C94D50F0C9400
:100210000000CF92DF92EF92FF92CF93DF93B091E5
:100220001502A0E08111AB2F8091160290E0880F9B
:10023000991FAC0146575E4FC0901B02D0901C0224
:10024000E0901D02F0901E0230E020E0FA01C5911E
:10025000D491E881B90190E080E0EB23EA130AC071
:100260002F5F3F4F6C157D058E059F0578F36FEF6F
:100270007FEFCB01DF91CF91FF90EF90DF90CF9098
:100280000895FC01538D448D252F30E0842F90E09C
:10029000821B930B541710F0CF9608950197089581
:1002A000FC01918D828D981761F0A28DAE0FBF2F4A
:1002B000B11D5D968C91928D9F5F9F73928F90E0A0
:1002C00008958FEF9FEF0895FC01918D828D98170F
:1002D00031F0828DE80FF11D858D90E008958FEF4C
:1002E0009FEF0895FC01918D228D892F90E0805C15
:1002F0009F4F821B91098F7399270895FC01A48D4C
:10030000A80FB92FB11DA35ABF4F2C91848D90E037
:1003100001968F739927848FA689B7892C93A0891A
:10032000B1898C91837080648C93938D848D9813A4
:1003300006C00288F389E02D80818F7D8083089537
:10034000EF92FF920F931F93CF93DF93EC0181E025
:10035000888F9B8D8C8D98131AC0E889F9898081CC
:1003600085FF15C09FB7F894EE89FF896083E889FF
:10037000F98980818370806480839FBF81E090E0F1
:10038000DF91CF911F910F91FF90EF900895F62E7E
:100390000B8D10E00F5F1F4F0F731127E02E8C8D18
:1003A0008E110CC00FB607FCFACFE889F98980815D
:1003B00085FFF5CFCE010E947E01F1CFEB8DEC0FD2
:1003C000FD2FF11DE35AFF4FF0829FB7F8940B8F7A
:1003D000EA89FB8980818062CFCFCF93DF93EC01E4
:1003E000888D8823B9F0AA89BB89E889F9898C911D
:1003F00085FD03C0808186FD0DC00FB607FCF7CFD9
:100400008C9185FFF2CF808185FFEDCFCE010E94D8
:100410007E01E9CFDF91CF91089589E591E00E94B7
:10042000720121E0892B09F420E0822F089580E0F9
:1004300090E0892B29F00E940D0281110C9400009C
:10044000089590E0FC01EA58FE4F2491FC01E85524
:10045000FE4F3491FC01EC56FE4FE491EE23C9F0BF
:10046000222339F0233001F1A8F4213019F1223090
:1004700029F1F0E0EE0FFF1FE459FE4FA591B49172
:100480008FB7F894EC91611126C030953E233C93D0
:100490008FBF08952730A9F02830C9F0243049F7DC
:1004A000809180008F7D03C0809180008F77809342
:1004B0008000DFCF84B58F7784BDDBCF84B58F7D9F
:1004C000FBCF8091B0008F778093B000D2CF809126
:1004D000B0008F7DF9CF3E2BDACFCF93DF9390E042
:1004E000FC01E855FE4F24918C569E4FFC018491EF
:1004F0008823D1F090E0880F991FFC01EE59FE4F40
:10050000A591B491FC01E459FE4FC591D49162309C
:1005100071F49FB7F8943C91822F809583238C933C
:10052000E8812E2B28839FBFDF91CF9108958FB74D
:10053000F894EC912E2B2C938FBFF6CF3FB7F89405
:100540008091510190915201A0915301B0915401B9
:1005500026B5A89B05C02F3F19F00196A11DB11D1E
:100560003FBFBA2FA92F982F8827BC01CD01620F5A
:10057000711D811D911D42E0660F771F881F991F15
:100580004A95D1F708958F929F92AF92BF92CF92E2
:10059000DF92EF92FF924B015C010E949E026B0181
:1005A0007C010E949E026C197D098E099F09683E9C
:1005B000734081059105A8F321E0821A9108A108F2
:1005C000B10888EEC80E83E0D81EE11CF11C81142E
:1005D0009104A104B10429F7FF90EF90DF90CF9030
:1005E000BF90AF909F908F900895CF92DF92EF923F
:1005F000FF920F931F93CF93DF93CDB7DEB7C05415
:10060000D1400FB6F894DEBF0FBECDBF2FB7F89420
:100610008091550190915601A0915701B0915801D8
:100620002FBF4091170250911802609119027091EA
:100630001A028C019D01041B150B260B370BB90107
:10064000A801403D57406105710590F480911F025B
:10065000C05CDE4F0FB6F894DEBF0FBECDBFDF919A
:10066000CF911F910F91FF90EF90DF90CF90089561
:100670008093170290931802A0931902B0931A0264
:1006800010921202109211021092100210920F0298
:1006900010920E0262E0809113020E946D0261E0EE
:1006A00070E080E090E00E94C30261E0809113025C
:1006B0000E946D0260E0809113020E9421028091ED
:1006C00014028551823020F58BE291E10197F1F718
:1006D00062E0809113020E946D028091200290E0FE
:1006E0008230910538F0880F991F880F991F059760
:1006F0000197F1F7F89480E00E9409016F3F7F4F66
:100700008F4F9F4F61F410921F02789480E0A0CF2A
:1007100064E170E080E090E00E94C302D9CF81E004
:100720000E9409016F3F7F4F8F4F9F4F61F38E01F2
:100730000F5F1F4F6E018FEBC81A8EEFD80A78013A
:1007400080E00E940901F7016083718382839383B3
:1007500081E00E940901F701648375838683978392
:10076000F8E0EF0EF11CEC14FD0451F7789430E042
:1007700020E0F801C080D180E280F380448155817F
:1007800066817781FFEFCF16DF06EF06FF0631F0B7
:100790004F3F8FEF58076807780719F410921F0230
:1007A000B5CFF90183E0F595E7958A95E1F7E25F2A
:1007B000FD4F8081880FC416D506E606F70610F1B6
:1007C00080832F5F3F4F085F1F4F2832310589F626
:1007D0004091120220910E0280910F02280F3327C0
:1007E000331F80911002280F311D80911102820F5A
:1007F000932F911D99274817190681F681E0809360
:100800001F0226CF8160DCCFAF92BF92CF92DF92E2
:10081000EF92FF920F931F93CF93DF936C017B01B5
:100820008B01040F151FEB015E01AE18BF08C01746
:10083000D10759F06991D601ED91FC910190F081B9
:10084000E02DC6010995892B79F7C501DF91CF917C
:100850001F910F91FF90EF90DF90CF90BF90AF90DE
:100860000895089590E080E008950F931F93CF932B
:10087000DF93EC0188819981009759F02A813B81AF
:100880002617370730F081E0DF91CF911F910F914C
:1008900008958B016F5F7F4F0E94080F009759F0FA
:1008A000998388831B830A832C813D81232B59F7ED
:1008B000FC011082E8CF80E0E7CFEF92FF920F9328
:1008C0001F93CF93DF936115710541F480E0DF91B1
:1008D000CF911F910F91FF90EF9008954115510511
:1008E000B1F07B01EC010C811D81040F151FB801D3
:1008F0000E943504882351F3288139818C819D81A0
:10090000B701820F931F0E94CE0F1D830C8381E0DD
:10091000DECFCF93DF93EC0188819981009711F0AE
:100920000E947F0E198218821D821C821B821A82ED
:10093000DF91CF910895EF92FF920F931F93CF9382
:10094000DF93EC017B018A01BA010E943504811119
:100950000BC0CE010E948904CE01DF91CF911F917F
:100960000F91FF90EF9008951D830C83B70188814C
:1009700099810E94CE0FF0CFEF92FF920F931F93B9
:10098000CF93DF93CDB7DEB7A1970FB6F894DEBF54
:100990000FBECDBF7C01CB01BA01F70111821082DD
:1009A00013821282158214828E010F5F1F4F22E084
:1009B00044E00E94BB090097C9F0FC0101900020AF
:1009C000E9F73197AF01481B590BBC01C7010E94E1
:1009D0009B04A1960FB6F894DEBF0FBECDBFDF918A
:1009E000CF911F910F91FF90EF900895C7010E9442
:1009F0008904EFCFFC0180819181009711F00C9464
:100A00007F0E0895FB01DC0111961C921E92139635
:100A10001C921E92129715961C921E92149786177E
:100A2000970749F0608171816115710521F044815A
:100A300055810C949B040895CF93DF93EC0160E003
:100A40008E810E94210261E08E810E94210260E07D
:100A50008E810E9421028BE891E00197F1F7DF91EE
:100A6000CF910895CF92DF92EF92FF920F931F9351
:100A7000CF93DF936C017C0187E0E80EF11CD0E09E
:100A8000C0E0062F10E0B8010C2E02C075956795E6
:100A90000A94E2F76170F70181917F010E942102BF
:100AA0002196C430D10579F7C601DF91CF911F910E
:100AB0000F91FF90EF90DF90CF900C941C05CF9298
:100AC000DF92EF92FF920F931F93CF93DF93EC018E
:100AD000F62E642F8C810E9421028D818F3F19F0A8
:100AE00060E00E9421020F2D10E08F8584FF25C059
:100AF0006E0187E0C80ED11CF12CE12CB8010E2C40
:100B000002C0759567950A94E2F76170F6018191CC
:100B10006F010E942102FFEFEF1AFF0A88E0E8163A
:100B2000F10461F7CE01DF91CF911F910F91FF90FA
:100B3000EF90DF90CF900C941C05B80184E0759580
:100B400067958A95E1F7CE010E9432056F2DCE019F
:100B5000DF91CF911F910F91FF90EF90DF90CF9099
:100B60000C94320540E0682F86EF91E00C945F050D
:100B7000CF93DF93823029F490910502986090938F
:100B800005028093090210920A0280E480930B020E
:100B900080E180930C0280E580930D0261E08091FA
:100BA000FA010E946D028091FB018F3F19F061E014
:100BB0000E946D0261E08091FC010E946D02C6EF0F
:100BC000D1E09E01265F31408091050284FD0BC07B
:100BD00084E090E021962817390744F461E08E8183
:100BE0000E946D02EECF88E090E0F4CF8BE39DE0B1
:100BF0000197F1F760E08091FA010E94210260E024
:100C00008091FC010E9421028091FB018F3F19F02D
:100C100060E00E9421028091050284FD39C063E0FA
:100C200086EF91E00E943205CBE4D6E4CE01019735
:100C3000F1F763E086EF91E00E9432052197F1F72A
:100C400063E086EF91E00E94320583E592E0019730
:100C5000F1F762E086EF91E00E9432058091050293
:100C600080620E94B20584E0809306028CE00E94BC
:100C7000B20581E00E94B2058BE39FE10197F1F795
:100C800082E08093070286E0DF91CF910C94B20559
:100C900080620E94B2058BE496E40197F1F780919F
:100CA000050280620E94B20583E592E00197F1F7A8
:100CB0008091050280620E94B205D0CF9091090216
:100CC000891710F08FEF890FE82FF0E0EA50FE4F00
:100CD000848980680C94B20541E00E945F0581E040
:100CE00090E008951F920F920FB60F9211242F9348
:100CF0003F938F939F93AF93BF93809155019091B2
:100D00005601A0915701B09158013091500123E054
:100D1000230F2D3758F50196A11DB11D20935001C9
:100D20008093550190935601A0935701B0935801B9
:100D30008091510190915201A0915301B0915401C1
:100D40000196A11DB11D8093510190935201A09372
:100D50005301B0935401BF91AF919F918F913F91F7
:100D60002F910F900FBE0F901F90189526E8230F1C
:100D70000296A11DB11DD2CF1F920F920FB60F92F6
:100D800011242F933F934F935F936F937F938F9390
:100D90009F93AF93BF93EF93FF9389E591E00E94F8
:100DA0007E01FF91EF91BF91AF919F918F917F91C4
:100DB0006F915F914F913F912F910F900FBE0F90C8
:100DC0001F9018951F920F920FB60F9211242F9318
:100DD0008F939F93EF93FF93E0916901F0916A01E4
:100DE0008081E0916F01F091700182FD1BC09081C4
:100DF000809172018F5F8F7320917301821741F090
:100E0000E0917201F0E0E75AFE4F958F80937201F6
:100E1000FF91EF919F918F912F910F900FBE0F90A7
:100E20001F9018958081F4CFE9E5F1E013821282DA
:100E300088EE93E0A0E0B0E084839583A683B78337
:100E40008AE091E09183808385EC90E095878487A8
:100E500084EC90E09787868780EC90E0918B808B84
:100E600081EC90E0938B828B82EC90E0958B848B6D
:100E700086EC90E0978B868B118E128E138E148EDB
:100E8000AEE0B2E08DE015968C9315978BE0169648
:100E90008C931697E5EBF1E0E4911796EC93179796
:100EA000E1EAF1E0E4911896EC93189740E85EE3EC
:100EB00060E070E01D964D935D936D937C93509729
:100EC000E6EFF1E0138212828CE191E0918380835E
:100ED0008AE0848389E0858388E0868385E0878350
:100EE00084E0808783E0818782E08287138614868E
:100EF00015861686178681E00C94B805CF93DF938C
:100F0000CDB7DEB768970FB6F894DEBF0FBECDBF82
:100F1000789484B5826084BD84B5816084BD85B5D4
:100F2000826085BD85B5816085BD80916E008160E0
:100F300080936E0010928100809181008260809386
:100F40008100809181008160809381008091800088
:100F50008160809380008091B10084608093B100B3
:100F60008091B00081608093B00080917A008460AD
:100F700080937A0080917A00826080937A008091D9
:100F80007A00816080937A0080917A0080688093F3
:100F90007A001092C10061E08BE00E946D0261E076
:100FA0008CE00E946D0261E086E00E946D0261E0CB
:100FB00087E00E946D0262E0809113020E946D0240
:100FC0002FB7F8948091550190915601A091570147
:100FD000B09158012FBF805D9740A109B10980935E
:100FE000170290931802A0931902B0931A0287E394
:100FF0008093200282E00E94B80580E00E945E0695
:101000004FE050E064E271E086EF91E00E9404045A
:1010100081E00E945E0647E050E064E371E086EF05
:1010200091E00E9404040BE31FE130E0A32E30E0C6
:10103000B32E64EF71E080E090E00E94C30281E093
:101040000E94B205C8010197F1F70E94F5028823BA
:1010500041F0809114028C3009F462C048F48B3066
:1010600001F1C12CD12C90ECE92E9FE7F92E43C061
:1010700085518230B0F790901002692D70E0762F84
:10108000662766277F7780911102682B90E080E0C9
:101090000E94150C2DEC3CEC4CEC5DE30E94760CB0
:1010A0005BC06091100270E090E080E00E94150C3F
:1010B0002B013C01F0901102F7FE0AC0AC019B012C
:1010C00060E070E080E89FEB0E946B0D2B013C011B
:1010D0006F2D6F7070E090E080E00E94170C2DEC97
:1010E0003CEC4CEC5DE30E94760CA30192010E9463
:1010F0006C0D6B017C010E94F502882351F08091F8
:1011000014028B3030F08D3080F18551823008F43C
:1011100016C1412C512C80EC682E8FE7782E43C0ED
:1011200090901002692D70E090E080E00E94150C14
:101130006B017C01609111026F7070E090E080E0C3
:101140000E94170C2DEC3CEC4CEC5DE30E94760CFD
:10115000A70196010E946C0D6B017C0197FECBCF1D
:10116000F7FAF094F7F8F094C6CF60910F0270E0B0
:1011700090E080E00E94170C2DEC3CEC4CEC5DE321
:101180000E94760C2B013C0160910E0270E090E011
:1011900080E00E94170C9B01AC01C301B2010E94C8
:1011A0006C0D2B013C01B701A601CE0101960E94F6
:1011B000BC0418861F821A8619861C861B8647E087
:1011C00050E06CE371E0CE0107960E949B044D81D4
:1011D0005E8169817A81CE0107960E945D0481114A
:1011E00004C0CE0107960E94890442E050E064E406
:1011F00071E0CE0107960E945D04811104C0CE010A
:1012000007960E948904BE01695F7F4FCE01439615
:101210000E940205CE0107960E94FA04CE010196B3
:101220000E94FA04B301A201CE0101960E94BC04FF
:1012300018861F821A8619861C861B8646E050E097
:1012400067E471E0CE0107960E949B044D815E81A8
:1012500069817A81CE0107960E945D04811104C0E4
:10126000CE0107960E94890441E050E06EE471E0EF
:10127000CE0107960E945D04811104C0CE0107963D
:101280000E948904BE01695F7F4FCE010D960E94C6
:101290000205CE0107960E94FA04CE0101960E9433
:1012A000FA0480E00E945E064F89588D6B897C8924
:1012B00086EF91E00E94040481E00E945E06498965
:1012C0005A896D857E8586EF91E00E94040420E0B6
:1012D00030E048EC51E4C701B6010E94D80D61E04E
:1012E00087FD60E086E00E94210220E030E040E2DD
:1012F00052E4C301B2010E94100C181694F160E090
:101300008CE00E94210261E08BE00E94210261E0FA
:1013100087E00E942102CE010D960E94FA04CE01C0
:1013200043960E94FA04A114B10409F482CE0E94EB
:101330000D02882309F47DCE0E9400007ACE6091D0
:101340000E0270910F0276276727762790E080E0E3
:101350000E94150C2DEC3CEC4CEC5DE30E94760CED
:1013600020CF61E08CE00E94210260E08BE00E94CF
:10137000210260E0CDCFEF920F931F93CF93DF93C5
:10138000E80134E047FD34E1042E000C550B57FF13
:1013900003C0519541955109E32E022F242FAE0130
:1013A0000E94D909CE01DF91CF911F910F91EF904B
:1013B0000895A9E0B0E0EFEDF9E00C943A0D6A0170
:1013C000F22EB02E102FFBE3AF2EA01608F41BE375
:1013D0001F5F012F27E0AE014F5F5F4F0E94380B68
:1013E000BC018981982F9970913009F43FC09BE22C
:1013F000E1FC04C09E2D9170E0FC3AC05E2D50715E
:10140000E82FE87083FF46C084E0911101C083E0BB
:10141000EF2DE81B8F1508F0E0E0D6018E2F20E2BB
:10142000552351F1992329F0D6019C93C6010196C9
:101430006C0196012D5F3F4FE2FE24C08EE4D60181
:101440008C9391E411969C93119712968C93D901E9
:101450008E2F90E281111BC0E20FF32FF11D10823D
:101460008EEF9FEF2996ECE00C94560D9DE2C6CFCF
:1014700090E2C4CF2D9381508111FCCFCE0ED11CB0
:10148000E0E0D0CF8EE6D6018C9391E6DBCF9D9342
:101490008150E0CF482F447082FF3DC084E091111D
:1014A00001C083E08F1510F4EF2DE81BD6018E2FBD
:1014B00020E2552309F1992329F0D6019C93C60116
:1014C00001966C0196012D5F3F4FE2FE1BC089E43F
:1014D000D6018C938EE411968C93119786E4129624
:1014E0008C93D9018E2F90E2882309F4B5CF9D9378
:1014F0008150FACF2D9381508111FCCFCE0ED11C9B
:10150000E0E0D9CF89E6D6018C938EE611968C93D4
:10151000119786E6E4CF9B0177FF02C030E020E020
:10152000A1E0B0E0911102C0B0E0A0E0F901319675
:10153000AE0FBF1F8B2C912CBB2009F461C054014E
:10154000EFEFAE1ABE0AAA0DBB1DFA161B0619F064
:1015500014F04F2D4A1B511188C0E3FC59C076018D
:10156000A42FB0E2A1114FC0C40ED11C992309F4DD
:101570005BC040E0D6011196F60190836D015523C2
:1015800009F448C0012F060F9A81582F507184FF2B
:1015900003C0913309F4015010160CF047C0093014
:1015A00008F008E0EEE2FE2E5B01A01AB10885010A
:1015B0009194819491082F3F320729F4D601FC922F
:1015C000F60131966F016217730794F10217130742
:1015D0007CF5DB01A21BB30BAA24A394B12CAC0EA7
:1015E000BD1EAA0DBB1D11968C9121503109D6014B
:1015F000119628153905F4F0F60180836D01DBCFD3
:10160000B12CA12CA0CFF701B1937F01A150AACF9B
:101610009111B0CFD601942F50E302C05D93915049
:101620009111FCCFC40ED11C40E0ACCF01E0BACF89
:1016300080E3DBCF6217730731F4963388F4953378
:1016400011F4552369F0F6018083FD01842F90E2A7
:10165000811108C0A40FB11D1C9290E080E002CF60
:1016600081E3F1CF91938150F3CF911183CF8ACF52
:10167000283008F027E03327DA01990F311D87FD64
:10168000916000966105710539F432602E5F3D93DB
:1016900030E32A95E1F708959F3F30F080387105D7
:1016A000610509F03C5F3C5F3D93913008F0806834
:1016B000911DDF93CF931F930F93FF92EF92192FFA
:1016C000987F9695E92F96959695E90FFF27EE530B
:1016D000FF4F99273327EE24FF24A701E701059048
:1016E0000894079428F4360FE71EF81E491F511D71
:1016F000660F771F881F991F0694A1F7059007941E
:1017000028F4E70EF81E491F561FC11D770F881FCA
:10171000991F661F0694A1F70590079428F4F80E08
:10172000491F561FC71FD11D880F991F661F771F9E
:101730000694A1F70590079420F4490F561FC71F80
:10174000D81F990F661F771F881F0694A9F78491E9
:101750001095177041F0D695C79557954795F79412
:10176000E7941A95C1F7E8E6F0E0689415901591B2
:1017700035916591959105907FE27395E118F10A95
:10178000430B560BC90BD009C0F7E10CF11E431FE8
:10179000561FC91FD01D7EF4703311F48A95E6CF11
:1017A000E894015030F0080F0AF40027021708F4FB
:1017B000202F2395022F7A3328F079E37D932A9501
:1017C000E9F710C07D932A9589F606949795679559
:1017D000379517951794E118F10A430B560BC90B6F
:1017E000D00998F023957E9173957A3308F070E3D1
:1017F0007C932013B8F77E9170617D9330F08395D0
:1018000071E37D9370E32A95E1F71124EF90FF9047
:101810000F911F91CF91DF91992787FD90950895A2
:101820000E94520C08F481E00895E89409C097FBE7
:101830003EF490958095709561957F4F8F4F9F4FA7
:101840009923A9F0F92F96E9BB279395F6958795EB
:1018500077956795B795F111F8CFFAF4BB0F11F4AE
:1018600060FF1BC06F5F7F4F8F4F9F4F16C0882355
:1018700011F096E911C0772321F09EE8872F762F8B
:1018800005C0662371F096E8862F70E060E02AF0CC
:101890009A95660F771F881FDAF7880F96958795B8
:1018A00097F90895990F0008550FAA0BE0E8FEEF8D
:1018B00016161706E807F907C0F012161306E40714
:1018C000F50798F0621B730B840B950B39F40A260D
:1018D00061F0232B242B252B21F408950A2609F4EB
:1018E000A140A6958FEF811D811D08950E94890C4E
:1018F0000C94FA0C0E94EC0C38F00E94F30C20F0CF
:10190000952311F00C94E30C0C94E90C11240C9425
:101910002E0D0E940B0D70F3959FC1F3950F50E0B3
:10192000551F629FF001729FBB27F00DB11D639F91
:10193000AA27F00DB11DAA1F649F6627B00DA11D37
:10194000661F829F2227B00DA11D621F739FB00DDD
:10195000A11D621F839FA00D611D221F749F33274D
:10196000A00D611D231F849F600D211D822F762FE6
:101970006A2F11249F5750409AF0F1F088234AF0C3
:10198000EE0FFF1FBB1F661F771F881F915050402F
:10199000A9F79E3F510580F00C94E30C0C942E0D9A
:1019A0005F3FE4F3983ED4F3869577956795B795B6
:1019B000F795E7959F5FC1F7FE2B880F911D9695D0
:1019C000879597F9089597F99F6780E870E060E040
:1019D00008959FEF80EC089500240A9416161706C8
:1019E00018060906089500240A9412161306140610
:1019F00005060895092E0394000C11F4882352F073
:101A0000BB0F40F4BF2B11F460FF04C06F5F7F4F2A
:101A10008F4F9F4F089557FD9058440F551F59F011
:101A20005F3F71F04795880F97FB991F61F09F3FCB
:101A300079F087950895121613061406551FF2CFF4
:101A40004695F1DF08C0161617061806991FF1CF44
:101A500086957105610508940895E894BB2766276B
:101A60007727CB0197F908952F923F924F925F927B
:101A70006F927F928F929F92AF92BF92CF92DF929E
:101A8000EF92FF920F931F93CF93DF93CDB7DEB703
:101A9000CA1BDB0B0FB6F894DEBF0FBECDBF099497
:101AA0002A88398848885F846E847D848C849B84EE
:101AB000AA84B984C884DF80EE80FD800C811B81FC
:101AC000AA81B981CE0FD11D0FB6F894DEBF0FBE2B
:101AD000CDBFED0108955058BB27AA270E94830D62
:101AE0000C94FA0C0E94EC0C38F00E94F30C20F0DD
:101AF00039F49F3F19F426F40C94E90C0EF4E095A8
:101B0000E7FB0C94E30CE92F0E940B0D58F3BA1776
:101B1000620773078407950720F079F4A6F50C9403
:101B20002D0D0EF4E0950B2EBA2FA02D0B01B9014F
:101B300090010C01CA01A0011124FF27591B99F043
:101B4000593F50F4503E68F11A16F040A22F232F4F
:101B5000342F4427585FF3CF469537952795A7959F
:101B6000F0405395C9F77EF41F16BA0B620B730B46
:101B7000840BBAF09150A1F0FF0FBB1F661F771FB7
:101B8000881FC2F70EC0BA0F621F731F841F48F46C
:101B9000879577956795B795F7959E3F08F0B0CFF5
:101BA0009395880F08F09927EE0F979587950895DC
:101BB0000E94520C08F48FEF0895EE0FFF1F05905E
:101BC000F491E02D09940F931F93CF93DF9382300C
:101BD000910510F482E090E0E0912302F09124025C
:101BE00030E020E0B0E0A0E0309799F42115310515
:101BF00009F44AC0281B390B24303105D8F58A81F5
:101C00009B816115710589F1FB0193838283FE013C
:101C100011C0408151810281138148175907E0F0BA
:101C20004817590799F4109761F012960C93129780
:101C300013961C933296CF01DF91CF911F910F9194
:101C400008950093230210932402F4CF2115310547
:101C500051F04217530738F0A901DB019A01BD0189
:101C6000DF01F801C1CFEF01F9CF909324028093F7
:101C70002302CDCFFE01E20FF31F819391932250F7
:101C8000310939832883D7CF209121023091220254
:101C9000232B41F420910201309103013093220261
:101CA000209321022091000130910101211531057D
:101CB00041F42DB73EB74091040150910501241B1A
:101CC000350BE0912102F0912202E217F307A0F414
:101CD0002E1B3F0B2817390778F0AC014E5F5F4F82
:101CE0002417350748F04E0F5F1F50932202409390
:101CF0002102819391939FCFF0E0E0E09CCFCF93BE
:101D0000DF930097E9F0FC01329713821282A091D1
:101D10002302B0912402ED0130E020E01097A1F4FD
:101D200020813181820F931F209121023091220264
:101D30002817390709F061C0F0932202E0932102CD
:101D4000DF91CF910895EA01CE17DF07E8F54A81C8
:101D50005B819E0141155105B1F7E901FB83EA83DF
:101D600049915991C40FD51FEC17FD0761F480818B
:101D700091810296840F951FE9019983888382815E
:101D800093819B838A83F0E0E0E012968D919C9191
:101D900013970097B9F52D913C911197CD010296BB
:101DA000820F931F209121023091220228173907B8
:101DB00039F6309751F51092240210922302B09315
:101DC0002202A0932102BCCFD383C28340815181E0
:101DD000840F951FC817D90761F44E5F5F4F888144
:101DE0009981480F591F518340838A819B81938336
:101DF00082832115310509F0B0CFF0932402E093DE
:101E000023029ECFFD01DC01C0CF13821282D7CF07
:101E1000B0E0A0E0EEE0FFE00C94360D8C010097FE
:101E200051F4CB010E94E30D8C01C801CDB7DEB7A0
:101E3000E0E10C94520DFC01E60FF71F9C012250CB
:101E40003109E217F30708F49DC0D901CD91DC9167
:101E50001197C617D70798F0C530D10530F3CE01DA
:101E600004978617970708F3C61BD70B2297C193D1
:101E7000D1936D937C93CF010E947F0ED6CF5B01EF
:101E8000AC1ABD0A4C018C0E9D1EA0912302B0918C
:101E90002402512C412CF12CE12C109731F580912A
:101EA0002102909122028815990509F05CC046161E
:101EB000570608F058C080910001909101010097E9
:101EC00041F48DB79EB74091040150910501841BE8
:101ED000950BE817F90708F055C0F0932202E0933C
:101EE0002102F90171836083A0CF8D919C9111979C
:101EF00012966C90129713967C901397A815B905BB
:101F000059F56C0142E0C40ED11CCA14DB0420F167
:101F1000AC014A195B09DA011296159780F06282CA
:101F2000738251834083D9016D937C93E114F10452
:101F300071F0D7011396FC93EE93129776CF229609
:101F40008C0F9D1FF90191838083F301EFCFF093F4
:101F50002402E093230269CF4816590608F42C01A5
:101F60007D01D3019ACFCB010E94E30D7C01009744
:101F700049F0AE01B8010E94C50FC8010E947F0E52
:101F8000870153CF10E000E050CFFB01DC0102C01D
:101F900001900D9241505040D8F70895FB01DC01AB
:0E1FA00001900D920020E1F70895F894FFCF14
:101FAE0000002502800000000000A0010404410191
:101FBE00ED01720150016401000000006C06040482
:101FCE003204310450726F796563746F203220557C
:101FDE0050534F00477275706F20360054656D7008
:101FEE002E3A20002A430048756D2E3A2000250017
:00000001FF
